{
  "_format": "hh-sol-artifact-1",
  "contractName": "PatchworkKingdomsEscrow",
  "sourceName": "contracts/PatchworkKingdomsEscrow.sol",
  "abi": [
    {
      "inputs": [
        {
          "internalType": "address",
          "name": "_address",
          "type": "address"
        }
      ],
      "stateMutability": "nonpayable",
      "type": "constructor"
    },
    {
      "anonymous": false,
      "inputs": [
        {
          "indexed": false,
          "internalType": "uint256",
          "name": "id",
          "type": "uint256"
        },
        {
          "indexed": false,
          "internalType": "address",
          "name": "tokenAddress",
          "type": "address"
        },
        {
          "indexed": false,
          "internalType": "uint256",
          "name": "tokenId",
          "type": "uint256"
        }
      ],
      "name": "Deposited",
      "type": "event"
    },
    {
      "anonymous": false,
      "inputs": [
        {
          "indexed": false,
          "internalType": "uint256",
          "name": "id",
          "type": "uint256"
        },
        {
          "indexed": false,
          "internalType": "uint256",
          "name": "price",
          "type": "uint256"
        },
        {
          "indexed": false,
          "internalType": "address",
          "name": "tokenAddress",
          "type": "address"
        },
        {
          "indexed": false,
          "internalType": "uint256",
          "name": "tokenId",
          "type": "uint256"
        }
      ],
      "name": "Donated",
      "type": "event"
    },
    {
      "inputs": [
        {
          "internalType": "uint256",
          "name": "itemId",
          "type": "uint256"
        }
      ],
      "name": "cancelDeposit",
      "outputs": [],
      "stateMutability": "nonpayable",
      "type": "function"
    },
    {
      "inputs": [
        {
          "internalType": "uint256",
          "name": "tokenId",
          "type": "uint256"
        },
        {
          "internalType": "uint256",
          "name": "_expiration",
          "type": "uint256"
        }
      ],
      "name": "deposit",
      "outputs": [],
      "stateMutability": "nonpayable",
      "type": "function"
    },
    {
      "inputs": [
        {
          "internalType": "uint256",
          "name": "itemId",
          "type": "uint256"
        }
      ],
      "name": "donation",
      "outputs": [],
      "stateMutability": "payable",
      "type": "function"
    },
    {
      "inputs": [
        {
          "internalType": "uint256",
          "name": "itemId",
          "type": "uint256"
        },
        {
          "internalType": "uint256",
          "name": "_expiration",
          "type": "uint256"
        }
      ],
      "name": "expiration",
      "outputs": [],
      "stateMutability": "nonpayable",
      "type": "function"
    },
    {
      "inputs": [
        {
          "internalType": "uint256",
          "name": "itemId",
          "type": "uint256"
        }
      ],
      "name": "getItem",
      "outputs": [
        {
          "components": [
            {
              "internalType": "uint256",
              "name": "itemId",
              "type": "uint256"
            },
            {
              "internalType": "address",
              "name": "giver",
              "type": "address"
            },
            {
              "internalType": "uint256",
              "name": "tokenId",
              "type": "uint256"
            },
            {
              "internalType": "uint256",
              "name": "expiration",
              "type": "uint256"
            },
            {
              "internalType": "uint256",
              "name": "price",
              "type": "uint256"
            }
          ],
          "internalType": "struct PatchworkKingdomsEscrow.ERC721Item",
          "name": "",
          "type": "tuple"
        }
      ],
      "stateMutability": "view",
      "type": "function"
    },
    {
      "inputs": [],
      "name": "getItems",
      "outputs": [
        {
          "components": [
            {
              "internalType": "uint256",
              "name": "itemId",
              "type": "uint256"
            },
            {
              "internalType": "address",
              "name": "giver",
              "type": "address"
            },
            {
              "internalType": "uint256",
              "name": "tokenId",
              "type": "uint256"
            },
            {
              "internalType": "uint256",
              "name": "expiration",
              "type": "uint256"
            },
            {
              "internalType": "uint256",
              "name": "price",
              "type": "uint256"
            }
          ],
          "internalType": "struct PatchworkKingdomsEscrow.ERC721Item[]",
          "name": "",
          "type": "tuple[]"
        }
      ],
      "stateMutability": "view",
      "type": "function"
    },
    {
      "inputs": [
        {
          "internalType": "uint256",
          "name": "",
          "type": "uint256"
        }
      ],
      "name": "items",
      "outputs": [
        {
          "internalType": "uint256",
          "name": "itemId",
          "type": "uint256"
        },
        {
          "internalType": "address",
          "name": "giver",
          "type": "address"
        },
        {
          "internalType": "uint256",
          "name": "tokenId",
          "type": "uint256"
        },
        {
          "internalType": "uint256",
          "name": "expiration",
          "type": "uint256"
        },
        {
          "internalType": "uint256",
          "name": "price",
          "type": "uint256"
        }
      ],
      "stateMutability": "view",
      "type": "function"
    },
    {
      "inputs": [
        {
          "internalType": "address",
          "name": "_address",
          "type": "address"
        }
      ],
      "name": "setAddress",
      "outputs": [],
      "stateMutability": "nonpayable",
      "type": "function"
    },
    {
      "inputs": [
        {
          "internalType": "uint256",
          "name": "lastMinPrice",
          "type": "uint256"
        },
        {
          "internalType": "uint256",
          "name": "itemId",
          "type": "uint256"
        }
      ],
      "name": "setLastMinPrice",
      "outputs": [],
      "stateMutability": "nonpayable",
      "type": "function"
    },
    {
      "inputs": [],
      "name": "withdraw",
      "outputs": [],
      "stateMutability": "nonpayable",
      "type": "function"
    }
  ],
  "bytecode": "0x608060405234801561001057600080fd5b50604051610fae380380610fae83398101604081905261002f91610060565b600080546001600160a01b039092166001600160a01b0319928316178155600155600280549091163317905561008e565b600060208284031215610071578081fd5b81516001600160a01b0381168114610087578182fd5b9392505050565b610f118061009d6000396000f3fe6080604052600436106100915760003560e01c8063742aeb0411610059578063742aeb041461017e578063bfb231d21461019e578063e2bbb15814610223578063e30081a014610243578063fdac32541461028057600080fd5b80633129e773146100965780633ccfd60b14610105578063410d59cc1461011c5780636f85c7551461013e57806372fada5c1461015e575b600080fd5b3480156100a257600080fd5b506100b66100b1366004610d4e565b610293565b6040516100fc9190815181526020808301516001600160a01b03169082015260408083015190820152606080830151908201526080918201519181019190915260a00190565b60405180910390f35b34801561011157600080fd5b5061011a6102f2565b005b34801561012857600080fd5b506101316103f5565b6040516100fc9190610dab565b34801561014a57600080fd5b5061011a610159366004610d66565b610504565b34801561016a57600080fd5b5061011a610179366004610d4e565b610651565b34801561018a57600080fd5b5061011a610199366004610d66565b6107b1565b3480156101aa57600080fd5b506101f36101b9366004610d4e565b60036020819052600091825260409091208054600182015460028301549383015460049093015491936001600160a01b0390911692909185565b604080519586526001600160a01b039094166020860152928401919091526060830152608082015260a0016100fc565b34801561022f57600080fd5b5061011a61023e366004610d66565b610819565b34801561024f57600080fd5b5061011a61025e366004610d0f565b600080546001600160a01b0319166001600160a01b0392909216919091179055565b61011a61028e366004610d4e565b610a69565b61029b610cd7565b50600090815260036020818152604092839020835160a0810185528154815260018201546001600160a01b031692810192909252600281015493820193909352908201546060820152600490910154608082015290565b6002546001600160a01b031633146103645760405162461bcd60e51b815260206004820152602a60248201527f546f6b656e732063616e206f6e6c792062652077697468647261776e206279206044820152693a34329030b236b4b71760b11b60648201526084015b60405180910390fd5b604051600090339047908381818185875af1925050503d80600081146103a6576040519150601f19603f3d011682016040523d82523d6000602084013e6103ab565b606091505b50509050806103f25760405162461bcd60e51b81526020600482015260136024820152722330b4b632b2103a37903bb4ba34323930bb9760691b604482015260640161035b565b50565b6060600060015467ffffffffffffffff81111561042257634e487b7160e01b600052604160045260246000fd5b60405190808252806020026020018201604052801561045b57816020015b610448610cd7565b8152602001906001900390816104405790505b50905060005b6001548110156104fe57600081815260036020818152604092839020835160a0810185528154815260018201546001600160a01b031692810192909252600281015493820193909352908201546060820152600490910154608082015282518390839081106104e057634e487b7160e01b600052603260045260246000fd5b602002602001018190525080806104f690610e95565b915050610461565b50919050565b600082815260036020818152604092839020835160a0810185528154815260018201546001600160a01b031692810192909252600281015493820193909352908201546060820181905260049092015460808201529082106105a85760405162461bcd60e51b815260206004820152601960248201527f54686520746f6b656e206973206e6f7420657870697265642e00000000000000604482015260640161035b565b600054602082015160408084015190516323b872dd60e01b81526001600160a01b03909316926323b872dd926105e2923092600401610d87565b600060405180830381600087803b1580156105fc57600080fd5b505af1158015610610573d6000803e3d6000fd5b5050506000938452505060036020819052604083208381556001810180546001600160a01b0319169055600281018490559081018390556004019190915550565b600081815260036020818152604092839020835160a0810185528154815260018201546001600160a01b0390811693820193909352600280830154958201959095529281015460608401526004015460808301529154909116331461070c5760405162461bcd60e51b815260206004820152602b60248201527f4465706f7369742063616e206f6e6c792062652063616e63656c6c656420627960448201526a103a34329030b236b4b71760a91b606482015260840161035b565b600054602082015160408084015190516323b872dd60e01b81526001600160a01b03909316926323b872dd92610746923092600401610d87565b600060405180830381600087803b15801561076057600080fd5b505af1158015610774573d6000803e3d6000fd5b5050506000928352505060036020819052604082208281556001810180546001600160a01b03191690556002810183905590810182905560040155565b6107ef6040518060400160405280601781526020017f53657474696e67206e65772050726963652076616c7565000000000000000000815250610c32565b600081815260036020526040902060040182905561080c82610c75565b61081582610c75565b5050565b6000546040516331a9108f60e11b8152600481018490526001600160a01b0390911690636352211e9060240160206040518083038186803b15801561085d57600080fd5b505afa158015610871573d6000803e3d6000fd5b505050506040513d601f19601f820116820180604052508101906108959190610d32565b6001600160a01b0316336001600160a01b0316146108f55760405162461bcd60e51b815260206004820152601e60248201527f53656e646572206973206e6f742074686520746f6b656e206f776e65722e0000604482015260640161035b565b6000546040516323b872dd60e01b81526001600160a01b03909116906323b872dd9061092990339030908790600401610d87565b600060405180830381600087803b15801561094357600080fd5b505af1158015610957573d6000803e3d6000fd5b50506001546040805160a0810182528281523360208201529081018690529092509050606081016109888442610e7d565b815260006020918201819052838152600380835260408083208551815593850151600180860180546001600160a01b0319166001600160a01b03909316929092179091559085015160028501556060850151918401919091556080909301516004909201919091558154829190610a00908390610e7d565b909155505060008054828252600360209081526040928390206002015483518581526001600160a01b03909316918301919091528183015290517f1599c0fcf897af5babc2bfcf707f5dc050f841b044d97c3251ecec35b9abf80b9181900360600190a1505050565b600081815260036020818152604092839020835160a0810185528154815260018201546001600160a01b031692810192909252600281015493820193909352908201546060820152600490910154608082018190523411610b3c5760405162461bcd60e51b815260206004820152604160248201527f5468652070726963652076616c756520646f6573206e6f74206578636565642060448201527f6f7220697320657175616c20746f20746865206d696e696d756d2070726963656064820152601760f91b608482015260a40161035b565b6000546040808301519051632142170760e11b81526001600160a01b03909216916342842e0e91610b739130913391600401610d87565b600060405180830381600087803b158015610b8d57600080fd5b505af1158015610ba1573d6000803e3d6000fd5b505060005460408481015181518781523460208201526001600160a01b03909316838301526060830152517f3f3408c286908f9e3c0c8810b9c18f1f7d407b1684e956177adb08fd2c825b519350908190036080019150a150600090815260036020819052604082208281556001810180546001600160a01b03191690556002810183905590810182905560040155565b6103f281604051602401610c469190610e2a565b60408051601f198184030181529190526020810180516001600160e01b031663104c13eb60e21b179052610cb6565b6103f281604051602401610c8b91815260200190565b60408051601f198184030181529190526020810180516001600160e01b031663f82c50f160e01b1790525b80516a636f6e736f6c652e6c6f67602083016000808483855afa5050505050565b6040518060a001604052806000815260200160006001600160a01b031681526020016000815260200160008152602001600081525090565b600060208284031215610d20578081fd5b8135610d2b81610ec6565b9392505050565b600060208284031215610d43578081fd5b8151610d2b81610ec6565b600060208284031215610d5f578081fd5b5035919050565b60008060408385031215610d78578081fd5b50508035926020909101359150565b6001600160a01b039384168152919092166020820152604081019190915260600190565b6020808252825182820181905260009190848201906040850190845b81811015610e1e57610e0b838551805182526020808201516001600160a01b0316908301526040808201519083015260608082015190830152608090810151910152565b9284019260a09290920191600101610dc7565b50909695505050505050565b6000602080835283518082850152825b81811015610e5657858101830151858201604001528201610e3a565b81811115610e675783604083870101525b50601f01601f1916929092016040019392505050565b60008219821115610e9057610e90610eb0565b500190565b6000600019821415610ea957610ea9610eb0565b5060010190565b634e487b7160e01b600052601160045260246000fd5b6001600160a01b03811681146103f257600080fdfea2646970667358221220415246fff9c4863ececed97c200e435819316ec4677cbf4595f123aa19ee771f64736f6c63430008040033",
  "linkReferences": {},
  "deployedLinkReferences": {}
}