{
  "_format": "hh-sol-artifact-1",
  "contractName": "ERC721TestToken",
  "sourceName": "contracts/ERC721TestToken.sol",
  "abi": [
    {
      "inputs": [],
      "stateMutability": "nonpayable",
      "type": "constructor"
    },
    {
      "anonymous": false,
      "inputs": [
        {
          "indexed": true,
          "internalType": "address",
          "name": "owner",
          "type": "address"
        },
        {
          "indexed": true,
          "internalType": "address",
          "name": "approved",
          "type": "address"
        },
        {
          "indexed": true,
          "internalType": "uint256",
          "name": "tokenId",
          "type": "uint256"
        }
      ],
      "name": "Approval",
      "type": "event"
    },
    {
      "anonymous": false,
      "inputs": [
        {
          "indexed": true,
          "internalType": "address",
          "name": "owner",
          "type": "address"
        },
        {
          "indexed": true,
          "internalType": "address",
          "name": "operator",
          "type": "address"
        },
        {
          "indexed": false,
          "internalType": "bool",
          "name": "approved",
          "type": "bool"
        }
      ],
      "name": "ApprovalForAll",
      "type": "event"
    },
    {
      "anonymous": false,
      "inputs": [
        {
          "indexed": true,
          "internalType": "address",
          "name": "previousOwner",
          "type": "address"
        },
        {
          "indexed": true,
          "internalType": "address",
          "name": "newOwner",
          "type": "address"
        }
      ],
      "name": "OwnershipTransferred",
      "type": "event"
    },
    {
      "anonymous": false,
      "inputs": [
        {
          "indexed": true,
          "internalType": "address",
          "name": "from",
          "type": "address"
        },
        {
          "indexed": true,
          "internalType": "address",
          "name": "to",
          "type": "address"
        },
        {
          "indexed": true,
          "internalType": "uint256",
          "name": "tokenId",
          "type": "uint256"
        }
      ],
      "name": "Transfer",
      "type": "event"
    },
    {
      "inputs": [],
      "name": "_tokenId",
      "outputs": [
        {
          "internalType": "uint256",
          "name": "",
          "type": "uint256"
        }
      ],
      "stateMutability": "view",
      "type": "function"
    },
    {
      "inputs": [
        {
          "internalType": "address",
          "name": "to",
          "type": "address"
        },
        {
          "internalType": "uint256",
          "name": "tokenId",
          "type": "uint256"
        }
      ],
      "name": "approve",
      "outputs": [],
      "stateMutability": "nonpayable",
      "type": "function"
    },
    {
      "inputs": [
        {
          "internalType": "address",
          "name": "owner",
          "type": "address"
        }
      ],
      "name": "balanceOf",
      "outputs": [
        {
          "internalType": "uint256",
          "name": "",
          "type": "uint256"
        }
      ],
      "stateMutability": "view",
      "type": "function"
    },
    {
      "inputs": [
        {
          "internalType": "uint256",
          "name": "tokenId",
          "type": "uint256"
        }
      ],
      "name": "getApproved",
      "outputs": [
        {
          "internalType": "address",
          "name": "",
          "type": "address"
        }
      ],
      "stateMutability": "view",
      "type": "function"
    },
    {
      "inputs": [
        {
          "internalType": "address",
          "name": "owner",
          "type": "address"
        },
        {
          "internalType": "address",
          "name": "operator",
          "type": "address"
        }
      ],
      "name": "isApprovedForAll",
      "outputs": [
        {
          "internalType": "bool",
          "name": "",
          "type": "bool"
        }
      ],
      "stateMutability": "view",
      "type": "function"
    },
    {
      "inputs": [
        {
          "internalType": "address",
          "name": "_to",
          "type": "address"
        }
      ],
      "name": "mint",
      "outputs": [],
      "stateMutability": "nonpayable",
      "type": "function"
    },
    {
      "inputs": [],
      "name": "name",
      "outputs": [
        {
          "internalType": "string",
          "name": "",
          "type": "string"
        }
      ],
      "stateMutability": "view",
      "type": "function"
    },
    {
      "inputs": [],
      "name": "owner",
      "outputs": [
        {
          "internalType": "address",
          "name": "",
          "type": "address"
        }
      ],
      "stateMutability": "view",
      "type": "function"
    },
    {
      "inputs": [
        {
          "internalType": "uint256",
          "name": "tokenId",
          "type": "uint256"
        }
      ],
      "name": "ownerOf",
      "outputs": [
        {
          "internalType": "address",
          "name": "",
          "type": "address"
        }
      ],
      "stateMutability": "view",
      "type": "function"
    },
    {
      "inputs": [],
      "name": "renounceOwnership",
      "outputs": [],
      "stateMutability": "nonpayable",
      "type": "function"
    },
    {
      "inputs": [
        {
          "internalType": "address",
          "name": "from",
          "type": "address"
        },
        {
          "internalType": "address",
          "name": "to",
          "type": "address"
        },
        {
          "internalType": "uint256",
          "name": "tokenId",
          "type": "uint256"
        }
      ],
      "name": "safeTransferFrom",
      "outputs": [],
      "stateMutability": "nonpayable",
      "type": "function"
    },
    {
      "inputs": [
        {
          "internalType": "address",
          "name": "from",
          "type": "address"
        },
        {
          "internalType": "address",
          "name": "to",
          "type": "address"
        },
        {
          "internalType": "uint256",
          "name": "tokenId",
          "type": "uint256"
        },
        {
          "internalType": "bytes",
          "name": "data",
          "type": "bytes"
        }
      ],
      "name": "safeTransferFrom",
      "outputs": [],
      "stateMutability": "nonpayable",
      "type": "function"
    },
    {
      "inputs": [
        {
          "internalType": "address",
          "name": "operator",
          "type": "address"
        },
        {
          "internalType": "bool",
          "name": "approved",
          "type": "bool"
        }
      ],
      "name": "setApprovalForAll",
      "outputs": [],
      "stateMutability": "nonpayable",
      "type": "function"
    },
    {
      "inputs": [
        {
          "internalType": "bytes4",
          "name": "interfaceId",
          "type": "bytes4"
        }
      ],
      "name": "supportsInterface",
      "outputs": [
        {
          "internalType": "bool",
          "name": "",
          "type": "bool"
        }
      ],
      "stateMutability": "view",
      "type": "function"
    },
    {
      "inputs": [],
      "name": "symbol",
      "outputs": [
        {
          "internalType": "string",
          "name": "",
          "type": "string"
        }
      ],
      "stateMutability": "view",
      "type": "function"
    },
    {
      "inputs": [
        {
          "internalType": "uint256",
          "name": "tokenId",
          "type": "uint256"
        }
      ],
      "name": "tokenURI",
      "outputs": [
        {
          "internalType": "string",
          "name": "",
          "type": "string"
        }
      ],
      "stateMutability": "view",
      "type": "function"
    },
    {
      "inputs": [
        {
          "internalType": "address",
          "name": "from",
          "type": "address"
        },
        {
          "internalType": "address",
          "name": "to",
          "type": "address"
        },
        {
          "internalType": "uint256",
          "name": "tokenId",
          "type": "uint256"
        }
      ],
      "name": "transferFrom",
      "outputs": [],
      "stateMutability": "nonpayable",
      "type": "function"
    },
    {
      "inputs": [
        {
          "internalType": "address",
          "name": "newOwner",
          "type": "address"
        }
      ],
      "name": "transferOwnership",
      "outputs": [],
      "stateMutability": "nonpayable",
      "type": "function"
    }
  ],
  "bytecode": "0x608060405260016007553480156200001657600080fd5b50604080518082018252600a8152695445535445524337323160b01b60208083019182528351808501909452600384526254534560e81b9084015281519192916200006491600091620000f3565b5080516200007a906001906020840190620000f3565b50505062000097620000916200009d60201b60201c565b620000a1565b620001d6565b3390565b600680546001600160a01b038381166001600160a01b0319831681179093556040519116919082907f8be0079c531659141344cd1fd0a4f28419497f9722a3daafe3b4186f6b6457e090600090a35050565b828054620001019062000199565b90600052602060002090601f01602090048101928262000125576000855562000170565b82601f106200014057805160ff191683800117855562000170565b8280016001018555821562000170579182015b828111156200017057825182559160200191906001019062000153565b506200017e92915062000182565b5090565b5b808211156200017e576000815560010162000183565b600181811c90821680620001ae57607f821691505b60208210811415620001d057634e487b7160e01b600052602260045260246000fd5b50919050565b61146680620001e66000396000f3fe608060405234801561001057600080fd5b50600436106101165760003560e01c806370a08231116100a2578063a22cb46511610071578063a22cb4651461022f578063b88d4fde14610242578063c87b56dd14610255578063e985e9c514610268578063f2fde38b146102a457600080fd5b806370a08231146101fb578063715018a61461020e5780638da5cb5b1461021657806395d89b411461022757600080fd5b806323b872dd116100e957806323b872dd1461019857806324822514146101ab57806342842e0e146101c25780636352211e146101d55780636a627842146101e857600080fd5b806301ffc9a71461011b57806306fdde0314610143578063081812fc14610158578063095ea7b314610183575b600080fd5b61012e610129366004611164565b6102b7565b60405190151581526020015b60405180910390f35b61014b610309565b60405161013a919061124c565b61016b61016636600461119c565b61039b565b6040516001600160a01b03909116815260200161013a565b61019661019136600461113b565b6103c2565b005b6101966101a6366004610ff1565b6104dd565b6101b460075481565b60405190815260200161013a565b6101966101d0366004610ff1565b61050e565b61016b6101e336600461119c565b610529565b6101966101f6366004610fa5565b610589565b6101b4610209366004610fa5565b6105ad565b610196610633565b6006546001600160a01b031661016b565b61014b610647565b61019661023d366004611101565b610656565b61019661025036600461102c565b610665565b61014b61026336600461119c565b61069d565b61012e610276366004610fbf565b6001600160a01b03918216600090815260056020908152604080832093909416825291909152205460ff1690565b6101966102b2366004610fa5565b610711565b60006001600160e01b031982166380ac58cd60e01b14806102e857506001600160e01b03198216635b5e139f60e01b145b8061030357506301ffc9a760e01b6001600160e01b03198316145b92915050565b6060600080546103189061136e565b80601f01602080910402602001604051908101604052809291908181526020018280546103449061136e565b80156103915780601f1061036657610100808354040283529160200191610391565b820191906000526020600020905b81548152906001019060200180831161037457829003601f168201915b5050505050905090565b60006103a68261078a565b506000908152600460205260409020546001600160a01b031690565b60006103cd82610529565b9050806001600160a01b0316836001600160a01b031614156104405760405162461bcd60e51b815260206004820152602160248201527f4552433732313a20617070726f76616c20746f2063757272656e74206f776e656044820152603960f91b60648201526084015b60405180910390fd5b336001600160a01b038216148061045c575061045c8133610276565b6104ce5760405162461bcd60e51b815260206004820152603e60248201527f4552433732313a20617070726f76652063616c6c6572206973206e6f7420746f60448201527f6b656e206f776e6572206e6f7220617070726f76656420666f7220616c6c00006064820152608401610437565b6104d883836107e9565b505050565b6104e73382610857565b6105035760405162461bcd60e51b8152600401610437906112b1565b6104d88383836108d6565b6104d883838360405180602001604052806000815250610665565b6000818152600260205260408120546001600160a01b0316806103035760405162461bcd60e51b8152602060048201526018602482015277115490cdcc8c4e881a5b9d985b1a59081d1bdad95b88125160421b6044820152606401610437565b61059581600754610a72565b600780549060006105a5836113a9565b919050555050565b60006001600160a01b0382166106175760405162461bcd60e51b815260206004820152602960248201527f4552433732313a2061646472657373207a65726f206973206e6f7420612076616044820152683634b21037bbb732b960b91b6064820152608401610437565b506001600160a01b031660009081526003602052604090205490565b61063b610bb4565b6106456000610c0e565b565b6060600180546103189061136e565b610661338383610c60565b5050565b61066f3383610857565b61068b5760405162461bcd60e51b8152600401610437906112b1565b61069784848484610d2f565b50505050565b60606106a88261078a565b60006106bf60408051602081019091526000815290565b905060008151116106df576040518060200160405280600081525061070a565b806106e984610d62565b6040516020016106fa9291906111e0565b6040516020818303038152906040525b9392505050565b610719610bb4565b6001600160a01b03811661077e5760405162461bcd60e51b815260206004820152602660248201527f4f776e61626c653a206e6577206f776e657220697320746865207a65726f206160448201526564647265737360d01b6064820152608401610437565b61078781610c0e565b50565b6000818152600260205260409020546001600160a01b03166107875760405162461bcd60e51b8152602060048201526018602482015277115490cdcc8c4e881a5b9d985b1a59081d1bdad95b88125160421b6044820152606401610437565b600081815260046020526040902080546001600160a01b0319166001600160a01b038416908117909155819061081e82610529565b6001600160a01b03167f8c5be1e5ebec7d5bd14f71427d1e84f3dd0314c0f7b2291e5b200ac8c7c3b92560405160405180910390a45050565b60008061086383610529565b9050806001600160a01b0316846001600160a01b031614806108aa57506001600160a01b0380821660009081526005602090815260408083209388168352929052205460ff165b806108ce5750836001600160a01b03166108c38461039b565b6001600160a01b0316145b949350505050565b826001600160a01b03166108e982610529565b6001600160a01b03161461094d5760405162461bcd60e51b815260206004820152602560248201527f4552433732313a207472616e736665722066726f6d20696e636f72726563742060448201526437bbb732b960d91b6064820152608401610437565b6001600160a01b0382166109af5760405162461bcd60e51b8152602060048201526024808201527f4552433732313a207472616e7366657220746f20746865207a65726f206164646044820152637265737360e01b6064820152608401610437565b6109ba6000826107e9565b6001600160a01b03831660009081526003602052604081208054600192906109e390849061132b565b90915550506001600160a01b0382166000908152600360205260408120805460019290610a119084906112ff565b909155505060008181526002602052604080822080546001600160a01b0319166001600160a01b0386811691821790925591518493918716917fddf252ad1be2c89b69c2b068fc378daa952ba7f163c4a11628f55a4df523b3ef91a4505050565b6001600160a01b038216610ac85760405162461bcd60e51b815260206004820181905260248201527f4552433732313a206d696e7420746f20746865207a65726f20616464726573736044820152606401610437565b6000818152600260205260409020546001600160a01b031615610b2d5760405162461bcd60e51b815260206004820152601c60248201527f4552433732313a20746f6b656e20616c7265616479206d696e746564000000006044820152606401610437565b6001600160a01b0382166000908152600360205260408120805460019290610b569084906112ff565b909155505060008181526002602052604080822080546001600160a01b0319166001600160a01b03861690811790915590518392907fddf252ad1be2c89b69c2b068fc378daa952ba7f163c4a11628f55a4df523b3ef908290a45050565b6006546001600160a01b031633146106455760405162461bcd60e51b815260206004820181905260248201527f4f776e61626c653a2063616c6c6572206973206e6f7420746865206f776e65726044820152606401610437565b600680546001600160a01b038381166001600160a01b0319831681179093556040519116919082907f8be0079c531659141344cd1fd0a4f28419497f9722a3daafe3b4186f6b6457e090600090a35050565b816001600160a01b0316836001600160a01b03161415610cc25760405162461bcd60e51b815260206004820152601960248201527f4552433732313a20617070726f766520746f2063616c6c6572000000000000006044820152606401610437565b6001600160a01b03838116600081815260056020908152604080832094871680845294825291829020805460ff191686151590811790915591519182527f17307eab39ab6107e8899845ad3d59bd9653f200f220920489ca2b5937696c31910160405180910390a3505050565b610d3a8484846108d6565b610d4684848484610e7c565b6106975760405162461bcd60e51b81526004016104379061125f565b606081610d865750506040805180820190915260018152600360fc1b602082015290565b8160005b8115610db05780610d9a816113a9565b9150610da99050600a83611317565b9150610d8a565b60008167ffffffffffffffff811115610dd957634e487b7160e01b600052604160045260246000fd5b6040519080825280601f01601f191660200182016040528015610e03576020820181803683370190505b5090505b84156108ce57610e1860018361132b565b9150610e25600a866113c4565b610e309060306112ff565b60f81b818381518110610e5357634e487b7160e01b600052603260045260246000fd5b60200101906001600160f81b031916908160001a905350610e75600a86611317565b9450610e07565b60006001600160a01b0384163b15610f7e57604051630a85bd0160e11b81526001600160a01b0385169063150b7a0290610ec090339089908890889060040161120f565b602060405180830381600087803b158015610eda57600080fd5b505af1925050508015610f0a575060408051601f3d908101601f19168201909252610f0791810190611180565b60015b610f64573d808015610f38576040519150601f19603f3d011682016040523d82523d6000602084013e610f3d565b606091505b508051610f5c5760405162461bcd60e51b81526004016104379061125f565b805181602001fd5b6001600160e01b031916630a85bd0160e11b1490506108ce565b506001949350505050565b80356001600160a01b0381168114610fa057600080fd5b919050565b600060208284031215610fb6578081fd5b61070a82610f89565b60008060408385031215610fd1578081fd5b610fda83610f89565b9150610fe860208401610f89565b90509250929050565b600080600060608486031215611005578081fd5b61100e84610f89565b925061101c60208501610f89565b9150604084013590509250925092565b60008060008060808587031215611041578081fd5b61104a85610f89565b935061105860208601610f89565b925060408501359150606085013567ffffffffffffffff8082111561107b578283fd5b818701915087601f83011261108e578283fd5b8135818111156110a0576110a0611404565b604051601f8201601f19908116603f011681019083821181831017156110c8576110c8611404565b816040528281528a60208487010111156110e0578586fd5b82602086016020830137918201602001949094529598949750929550505050565b60008060408385031215611113578182fd5b61111c83610f89565b915060208301358015158114611130578182fd5b809150509250929050565b6000806040838503121561114d578182fd5b61115683610f89565b946020939093013593505050565b600060208284031215611175578081fd5b813561070a8161141a565b600060208284031215611191578081fd5b815161070a8161141a565b6000602082840312156111ad578081fd5b5035919050565b600081518084526111cc816020860160208601611342565b601f01601f19169290920160200192915050565b600083516111f2818460208801611342565b835190830190611206818360208801611342565b01949350505050565b6001600160a01b0385811682528416602082015260408101839052608060608201819052600090611242908301846111b4565b9695505050505050565b60208152600061070a60208301846111b4565b60208082526032908201527f4552433732313a207472616e7366657220746f206e6f6e20455243373231526560408201527131b2b4bb32b91034b6b83632b6b2b73a32b960711b606082015260800190565b6020808252602e908201527f4552433732313a2063616c6c6572206973206e6f7420746f6b656e206f776e6560408201526d1c881b9bdc88185c1c1c9bdd995960921b606082015260800190565b60008219821115611312576113126113d8565b500190565b600082611326576113266113ee565b500490565b60008282101561133d5761133d6113d8565b500390565b60005b8381101561135d578181015183820152602001611345565b838111156106975750506000910152565b600181811c9082168061138257607f821691505b602082108114156113a357634e487b7160e01b600052602260045260246000fd5b50919050565b60006000198214156113bd576113bd6113d8565b5060010190565b6000826113d3576113d36113ee565b500690565b634e487b7160e01b600052601160045260246000fd5b634e487b7160e01b600052601260045260246000fd5b634e487b7160e01b600052604160045260246000fd5b6001600160e01b03198116811461078757600080fdfea2646970667358221220d71361c10a0898e13b4b4e2cfcf30d419b73e9e26da0c34739f26258b1fb841e64736f6c63430008040033",
  "linkReferences": {},
  "deployedLinkReferences": {}
}