{
    "_format": "hh-sol-artifact-1",
    "contractName": "PatchworkKingdomsEscrow",
    "sourceName": "contracts/PatchworkKingdomsEscrow.sol",
    "abi": [
        {
            "inputs": [
                {
                    "internalType": "address",
                    "name": "_address",
                    "type": "address"
                }
            ],
            "stateMutability": "nonpayable",
            "type": "constructor"
        },
        {
            "anonymous": false,
            "inputs": [
                {
                    "indexed": false,
                    "internalType": "uint256",
                    "name": "id",
                    "type": "uint256"
                },
                {
                    "indexed": false,
                    "internalType": "address",
                    "name": "tokenAddress",
                    "type": "address"
                },
                {
                    "indexed": false,
                    "internalType": "uint256",
                    "name": "tokenId",
                    "type": "uint256"
                }
            ],
            "name": "Deposited",
            "type": "event"
        },
        {
            "anonymous": false,
            "inputs": [
                {
                    "indexed": false,
                    "internalType": "uint256",
                    "name": "id",
                    "type": "uint256"
                },
                {
                    "indexed": false,
                    "internalType": "uint256",
                    "name": "price",
                    "type": "uint256"
                },
                {
                    "indexed": false,
                    "internalType": "address",
                    "name": "tokenAddress",
                    "type": "address"
                },
                {
                    "indexed": false,
                    "internalType": "uint256",
                    "name": "tokenId",
                    "type": "uint256"
                }
            ],
            "name": "Donated",
            "type": "event"
        },
        {
            "inputs": [
                {
                    "internalType": "uint256",
                    "name": "itemId",
                    "type": "uint256"
                }
            ],
            "name": "cancelDeposit",
            "outputs": [],
            "stateMutability": "nonpayable",
            "type": "function"
        },
        {
            "inputs": [
                {
                    "internalType": "uint256",
                    "name": "tokenId",
                    "type": "uint256"
                },
                {
                    "internalType": "uint256",
                    "name": "_expiration",
                    "type": "uint256"
                }
            ],
            "name": "deposit",
            "outputs": [],
            "stateMutability": "nonpayable",
            "type": "function"
        },
        {
            "inputs": [
                {
                    "internalType": "uint256",
                    "name": "itemId",
                    "type": "uint256"
                }
            ],
            "name": "donation",
            "outputs": [],
            "stateMutability": "payable",
            "type": "function"
        },
        {
            "inputs": [
                {
                    "internalType": "uint256",
                    "name": "itemId",
                    "type": "uint256"
                },
                {
                    "internalType": "uint256",
                    "name": "currentTimestamp",
                    "type": "uint256"
                }
            ],
            "name": "expiration",
            "outputs": [],
            "stateMutability": "nonpayable",
            "type": "function"
        },
        {
            "inputs": [
                {
                    "internalType": "uint256",
                    "name": "itemId",
                    "type": "uint256"
                }
            ],
            "name": "getItem",
            "outputs": [
                {
                    "components": [
                        {
                            "internalType": "uint256",
                            "name": "itemId",
                            "type": "uint256"
                        },
                        {
                            "internalType": "address",
                            "name": "giver",
                            "type": "address"
                        },
                        {
                            "internalType": "uint256",
                            "name": "tokenId",
                            "type": "uint256"
                        },
                        {
                            "internalType": "uint256",
                            "name": "expiration",
                            "type": "uint256"
                        },
                        {
                            "internalType": "uint256",
                            "name": "price",
                            "type": "uint256"
                        },
                        {
                            "internalType": "bool",
                            "name": "isReady",
                            "type": "bool"
                        }
                    ],
                    "internalType": "struct PatchworkKingdomsEscrow.ERC721Item",
                    "name": "",
                    "type": "tuple"
                }
            ],
            "stateMutability": "view",
            "type": "function"
        },
        {
            "inputs": [],
            "name": "getItems",
            "outputs": [
                {
                    "components": [
                        {
                            "internalType": "uint256",
                            "name": "itemId",
                            "type": "uint256"
                        },
                        {
                            "internalType": "address",
                            "name": "giver",
                            "type": "address"
                        },
                        {
                            "internalType": "uint256",
                            "name": "tokenId",
                            "type": "uint256"
                        },
                        {
                            "internalType": "uint256",
                            "name": "expiration",
                            "type": "uint256"
                        },
                        {
                            "internalType": "uint256",
                            "name": "price",
                            "type": "uint256"
                        },
                        {
                            "internalType": "bool",
                            "name": "isReady",
                            "type": "bool"
                        }
                    ],
                    "internalType": "struct PatchworkKingdomsEscrow.ERC721Item[]",
                    "name": "",
                    "type": "tuple[]"
                }
            ],
            "stateMutability": "view",
            "type": "function"
        },
        {
            "inputs": [
                {
                    "internalType": "uint256",
                    "name": "",
                    "type": "uint256"
                }
            ],
            "name": "items",
            "outputs": [
                {
                    "internalType": "uint256",
                    "name": "itemId",
                    "type": "uint256"
                },
                {
                    "internalType": "address",
                    "name": "giver",
                    "type": "address"
                },
                {
                    "internalType": "uint256",
                    "name": "tokenId",
                    "type": "uint256"
                },
                {
                    "internalType": "uint256",
                    "name": "expiration",
                    "type": "uint256"
                },
                {
                    "internalType": "uint256",
                    "name": "price",
                    "type": "uint256"
                },
                {
                    "internalType": "bool",
                    "name": "isReady",
                    "type": "bool"
                }
            ],
            "stateMutability": "view",
            "type": "function"
        },
        {
            "inputs": [
                {
                    "internalType": "address",
                    "name": "_address",
                    "type": "address"
                }
            ],
            "name": "setAddress",
            "outputs": [],
            "stateMutability": "nonpayable",
            "type": "function"
        },
        {
            "inputs": [
                {
                    "internalType": "uint256",
                    "name": "lastMinPrice",
                    "type": "uint256"
                },
                {
                    "internalType": "uint256",
                    "name": "itemId",
                    "type": "uint256"
                }
            ],
            "name": "setLastMinPrice",
            "outputs": [],
            "stateMutability": "nonpayable",
            "type": "function"
        },
        {
            "inputs": [],
            "name": "withdraw",
            "outputs": [],
            "stateMutability": "nonpayable",
            "type": "function"
        }
    ],
    "bytecode": "0x608060405234801561001057600080fd5b5060405161107838038061107883398101604081905261002f91610060565b600080546001600160a01b039092166001600160a01b0319928316178155600155600280549091163317905561008e565b600060208284031215610071578081fd5b81516001600160a01b0381168114610087578182fd5b9392505050565b610fdb8061009d6000396000f3fe6080604052600436106100915760003560e01c8063742aeb0411610059578063742aeb0414610145578063bfb231d214610165578063e2bbb158146101fc578063e30081a01461021c578063fdac32541461025957600080fd5b80633129e773146100965780633ccfd60b146100cc578063410d59cc146100e35780636f85c7551461010557806372fada5c14610125575b600080fd5b3480156100a257600080fd5b506100b66100b1366004610e46565b61026c565b6040516100c39190610f33565b60405180910390f35b3480156100d857600080fd5b506100e16102da565b005b3480156100ef57600080fd5b506100f86103dd565b6040516100c39190610ee5565b34801561011157600080fd5b506100e1610120366004610e5e565b6104fb565b34801561013157600080fd5b506100e1610140366004610e46565b61070e565b34801561015157600080fd5b506100e1610160366004610e5e565b61088c565b34801561017157600080fd5b506101c5610180366004610e46565b600360208190526000918252604090912080546001820154600283015493830154600484015460059094015492946001600160a01b0390921693919290919060ff1686565b604080519687526001600160a01b0390951660208701529385019290925260608401526080830152151560a082015260c0016100c3565b34801561020857600080fd5b506100e1610217366004610e5e565b610920565b34801561022857600080fd5b506100e1610237366004610e07565b600080546001600160a01b0319166001600160a01b0392909216919091179055565b6100e1610267366004610e46565b610b93565b610274610dc6565b50600090815260036020818152604092839020835160c0810185528154815260018201546001600160a01b0316928101929092526002810154938201939093529082015460608201526004820154608082015260059091015460ff16151560a082015290565b6002546001600160a01b0316331461034c5760405162461bcd60e51b815260206004820152602a60248201527f546f6b656e732063616e206f6e6c792062652077697468647261776e206279206044820152693a34329030b236b4b71760b11b60648201526084015b60405180910390fd5b604051600090339047908381818185875af1925050503d806000811461038e576040519150601f19603f3d011682016040523d82523d6000602084013e610393565b606091505b50509050806103da5760405162461bcd60e51b81526020600482015260136024820152722330b4b632b2103a37903bb4ba34323930bb9760691b6044820152606401610343565b50565b6060600060015467ffffffffffffffff81111561040a57634e487b7160e01b600052604160045260246000fd5b60405190808252806020026020018201604052801561044357816020015b610430610dc6565b8152602001906001900390816104285790505b50905060005b6001548110156104f557600081815260036020818152604092839020835160c0810185528154815260018201546001600160a01b0316928101929092526002810154938201939093529082015460608201526004820154608082015260059091015460ff16151560a082015282518390839081106104d757634e487b7160e01b600052603260045260246000fd5b602002602001018190525080806104ed90610f5f565b915050610449565b50919050565b600082815260036020818152604092839020835160c0810185528154815260018201546001600160a01b039081169382019390935260028083015495820195909552928101546060840152600481015460808401526005015460ff16151560a08301529154909116331480610585575080602001516001600160a01b0316336001600160a01b0316145b6106055760405162461bcd60e51b8152602060048201526044602482018190527f546f6b656e732063616e206f6e6c792062652065787069726564206279207468908201527f652061646d696e206f7220746865206f726967696e616c20746f6b656e206f776064820152633732b91760e11b608482015260a401610343565b80606001518210156106595760405162461bcd60e51b815260206004820152601960248201527f54686520746f6b656e206973206e6f7420657870697265642e000000000000006044820152606401610343565b600054602082015160408084015190516323b872dd60e01b81526001600160a01b03909316926323b872dd92610693923092600401610ec1565b600060405180830381600087803b1580156106ad57600080fd5b505af11580156106c1573d6000803e3d6000fd5b5050506000938452505060036020819052604083208381556001810180546001600160a01b031916905560028101849055908101839055600481019290925550600501805460ff19169055565b600081815260036020818152604092839020835160c0810185528154815260018201546001600160a01b039081169382019390935260028083015495820195909552928101546060840152600481015460808401526005015460ff16151560a0830152915490911633146107d85760405162461bcd60e51b815260206004820152602b60248201527f4465706f7369742063616e206f6e6c792062652063616e63656c6c656420627960448201526a103a34329030b236b4b71760a91b6064820152608401610343565b600054602082015160408084015190516323b872dd60e01b81526001600160a01b03909316926323b872dd92610812923092600401610ec1565b600060405180830381600087803b15801561082c57600080fd5b505af1158015610840573d6000803e3d6000fd5b5050506000928352505060036020819052604082208281556001810180546001600160a01b0319169055600281018390559081018290556004810191909155600501805460ff19169055565b6002546001600160a01b031633146108fa5760405162461bcd60e51b815260206004820152602b60248201527f4c617374206d696e2070726963652063616e206f6e6c7920626520736574206260448201526a3c9030b71030b236b4b71760a91b6064820152608401610343565b60009081526003602052604090206004810191909155600501805460ff19166001179055565b6000546040516331a9108f60e11b8152600481018490526001600160a01b0390911690636352211e9060240160206040518083038186803b15801561096457600080fd5b505afa158015610978573d6000803e3d6000fd5b505050506040513d601f19601f8201168201806040525081019061099c9190610e2a565b6001600160a01b0316336001600160a01b0316146109fc5760405162461bcd60e51b815260206004820152601e60248201527f53656e646572206973206e6f742074686520746f6b656e206f776e65722e00006044820152606401610343565b6000546040516323b872dd60e01b81526001600160a01b03909116906323b872dd90610a3090339030908790600401610ec1565b600060405180830381600087803b158015610a4a57600080fd5b505af1158015610a5e573d6000803e3d6000fd5b50506001546040805160c081018252828152336020820152908101869052909250905060608101610a8f8442610f47565b815267026db992a3b180006020808301919091526000604092830181905284815260038083528382208551815592850151600180850180546001600160a01b0319166001600160a01b03909316929092179091559385015160028401556060850151908301556080840151600483015560a0909301516005909101805460ff1916911515919091179055805490918291610b2a908390610f47565b909155505060008054828252600360209081526040928390206002015483518581526001600160a01b03909316918301919091528183015290517f1599c0fcf897af5babc2bfcf707f5dc050f841b044d97c3251ecec35b9abf80b9181900360600190a1505050565b600081815260036020818152604092839020835160c0810185528154815260018201546001600160a01b03169281019290925260028101549382019390935290820154606082015260048201546080820181905260059092015460ff16151560a0820152903411610c765760405162461bcd60e51b815260206004820152604160248201527f5468652070726963652076616c756520646f6573206e6f74206578636565642060448201527f6f7220697320657175616c20746f20746865206d696e696d756d2070726963656064820152601760f91b608482015260a401610343565b80606001514211610cc15760405162461bcd60e51b81526020600482015260156024820152742a3432903a37b5b2b71034b99032bc3834b932b21760591b6044820152606401610343565b6000546040808301519051632142170760e11b81526001600160a01b03909216916342842e0e91610cf89130913391600401610ec1565b600060405180830381600087803b158015610d1257600080fd5b505af1158015610d26573d6000803e3d6000fd5b505060005460408481015181518781523460208201526001600160a01b03909316838301526060830152517f3f3408c286908f9e3c0c8810b9c18f1f7d407b1684e956177adb08fd2c825b519350908190036080019150a150600090815260036020819052604082208281556001810180546001600160a01b0319169055600281018390559081018290556004810191909155600501805460ff19169055565b6040518060c001604052806000815260200160006001600160a01b031681526020016000815260200160008152602001600081526020016000151581525090565b600060208284031215610e18578081fd5b8135610e2381610f90565b9392505050565b600060208284031215610e3b578081fd5b8151610e2381610f90565b600060208284031215610e57578081fd5b5035919050565b60008060408385031215610e70578081fd5b50508035926020909101359150565b805182526020808201516001600160a01b03169083015260408082015190830152606080820151908301526080808201519083015260a0908101511515910152565b6001600160a01b039384168152919092166020820152604081019190915260600190565b6020808252825182820181905260009190848201906040850190845b81811015610f2757610f14838551610e7f565b9284019260c09290920191600101610f01565b50909695505050505050565b60c08101610f418284610e7f565b92915050565b60008219821115610f5a57610f5a610f7a565b500190565b6000600019821415610f7357610f73610f7a565b5060010190565b634e487b7160e01b600052601160045260246000fd5b6001600160a01b03811681146103da57600080fdfea264697066735822122011353d661ec940bf62d3e6523c070d562b0f0cb9425e1ff6903fca0a718bd19964736f6c63430008040033",
    "linkReferences": {},
    "deployedLinkReferences": {}
}